{
  "_format": "hh-sol-artifact-1",
  "contractName": "IDRXPayment",
  "sourceName": "contracts/IDRXPayment.sol",
  "abi": [
    {
      "inputs": [
        {
          "internalType": "address",
          "name": "_idrxToken",
          "type": "address"
        },
        {
          "internalType": "address",
          "name": "_forwarder",
          "type": "address"
        }
      ],
      "stateMutability": "nonpayable",
      "type": "constructor"
    },
    {
      "inputs": [],
      "name": "IDRXPayment__AmountMustBeGreaterThanZero",
      "type": "error"
    },
    {
      "inputs": [],
      "name": "IDRXPayment__FeeTransferFailed",
      "type": "error"
    },
    {
      "inputs": [],
      "name": "IDRXPayment__InvalidForwarderAddress",
      "type": "error"
    },
    {
      "inputs": [],
      "name": "IDRXPayment__InvalidReceiverAddress",
      "type": "error"
    },
    {
      "inputs": [],
      "name": "IDRXPayment__InvalidTokenAddress",
      "type": "error"
    },
    {
      "inputs": [],
      "name": "IDRXPayment__TransferFailed",
      "type": "error"
    },
    {
      "inputs": [],
      "name": "IDRXPayment__UnauthorizedForwarder",
      "type": "error"
    },
    {
      "inputs": [
        {
          "internalType": "address",
          "name": "owner",
          "type": "address"
        }
      ],
      "name": "OwnableInvalidOwner",
      "type": "error"
    },
    {
      "inputs": [
        {
          "internalType": "address",
          "name": "account",
          "type": "address"
        }
      ],
      "name": "OwnableUnauthorizedAccount",
      "type": "error"
    },
    {
      "anonymous": false,
      "inputs": [
        {
          "indexed": true,
          "internalType": "address",
          "name": "forwarder",
          "type": "address"
        }
      ],
      "name": "ForwarderUpdated",
      "type": "event"
    },
    {
      "anonymous": false,
      "inputs": [
        {
          "indexed": true,
          "internalType": "address",
          "name": "previousOwner",
          "type": "address"
        },
        {
          "indexed": true,
          "internalType": "address",
          "name": "newOwner",
          "type": "address"
        }
      ],
      "name": "OwnershipTransferred",
      "type": "event"
    },
    {
      "anonymous": false,
      "inputs": [
        {
          "indexed": true,
          "internalType": "address",
          "name": "sender",
          "type": "address"
        },
        {
          "indexed": true,
          "internalType": "address",
          "name": "receiver",
          "type": "address"
        },
        {
          "indexed": false,
          "internalType": "uint256",
          "name": "amount",
          "type": "uint256"
        },
        {
          "indexed": false,
          "internalType": "uint256",
          "name": "timestamp",
          "type": "uint256"
        }
      ],
      "name": "PaymentCompleted",
      "type": "event"
    },
    {
      "inputs": [],
      "name": "feePercentage",
      "outputs": [
        {
          "internalType": "uint256",
          "name": "",
          "type": "uint256"
        }
      ],
      "stateMutability": "view",
      "type": "function"
    },
    {
      "inputs": [],
      "name": "idrxToken",
      "outputs": [
        {
          "internalType": "contract IERC20",
          "name": "",
          "type": "address"
        }
      ],
      "stateMutability": "view",
      "type": "function"
    },
    {
      "inputs": [],
      "name": "owner",
      "outputs": [
        {
          "internalType": "address",
          "name": "",
          "type": "address"
        }
      ],
      "stateMutability": "view",
      "type": "function"
    },
    {
      "inputs": [],
      "name": "renounceOwnership",
      "outputs": [],
      "stateMutability": "nonpayable",
      "type": "function"
    },
    {
      "inputs": [
        {
          "internalType": "address",
          "name": "_sender",
          "type": "address"
        },
        {
          "internalType": "address",
          "name": "_receiver",
          "type": "address"
        },
        {
          "internalType": "uint256",
          "name": "_amount",
          "type": "uint256"
        }
      ],
      "name": "sendIDRXMeta",
      "outputs": [],
      "stateMutability": "nonpayable",
      "type": "function"
    },
    {
      "inputs": [
        {
          "internalType": "address",
          "name": "newOwner",
          "type": "address"
        }
      ],
      "name": "transferOwnership",
      "outputs": [],
      "stateMutability": "nonpayable",
      "type": "function"
    },
    {
      "inputs": [],
      "name": "trustedForwarder",
      "outputs": [
        {
          "internalType": "address",
          "name": "",
          "type": "address"
        }
      ],
      "stateMutability": "view",
      "type": "function"
    }
  ],
  "bytecode": "0x6080604052606460035534801561001557600080fd5b50604051610f2a380380610f2a83398181016040528101906100379190610379565b33600073ffffffffffffffffffffffffffffffffffffffff168173ffffffffffffffffffffffffffffffffffffffff16036100aa5760006040517f1e4fbdf70000000000000000000000000000000000000000000000000000000081526004016100a191906103c8565b60405180910390fd5b6100b98161025260201b60201c565b50600073ffffffffffffffffffffffffffffffffffffffff168273ffffffffffffffffffffffffffffffffffffffff1603610120576040517fce63cff200000000000000000000000000000000000000000000000000000000815260040160405180910390fd5b600073ffffffffffffffffffffffffffffffffffffffff168173ffffffffffffffffffffffffffffffffffffffff1603610186576040517f72e55c8f00000000000000000000000000000000000000000000000000000000815260040160405180910390fd5b81600160006101000a81548173ffffffffffffffffffffffffffffffffffffffff021916908373ffffffffffffffffffffffffffffffffffffffff16021790555080600260006101000a81548173ffffffffffffffffffffffffffffffffffffffff021916908373ffffffffffffffffffffffffffffffffffffffff1602179055508073ffffffffffffffffffffffffffffffffffffffff167f9d90a82ec1d038d4e13317a0eb136f9c65b7ed42156fc204ec4b7c4731e7395060405160405180910390a250506103e3565b60008060009054906101000a900473ffffffffffffffffffffffffffffffffffffffff169050816000806101000a81548173ffffffffffffffffffffffffffffffffffffffff021916908373ffffffffffffffffffffffffffffffffffffffff1602179055508173ffffffffffffffffffffffffffffffffffffffff168173ffffffffffffffffffffffffffffffffffffffff167f8be0079c531659141344cd1fd0a4f28419497f9722a3daafe3b4186f6b6457e060405160405180910390a35050565b600080fd5b600073ffffffffffffffffffffffffffffffffffffffff82169050919050565b60006103468261031b565b9050919050565b6103568161033b565b811461036157600080fd5b50565b6000815190506103738161034d565b92915050565b600080604083850312156103905761038f610316565b5b600061039e85828601610364565b92505060206103af85828601610364565b9150509250929050565b6103c28161033b565b82525050565b60006020820190506103dd60008301846103b9565b92915050565b610b38806103f26000396000f3fe608060405234801561001057600080fd5b506004361061007d5760003560e01c80638da5cb5b1161005b5780638da5cb5b146100c6578063a001ecdd146100e4578063d6bc7c6314610102578063f2fde38b146101205761007d565b80634b0d491b14610082578063715018a61461009e5780637da0a877146100a8575b600080fd5b61009c600480360381019061009791906107ea565b61013c565b005b6100a66104e9565b005b6100b06104fd565b6040516100bd919061084c565b60405180910390f35b6100ce610523565b6040516100db919061084c565b60405180910390f35b6100ec61054c565b6040516100f99190610876565b60405180910390f35b61010a610552565b60405161011791906108f0565b60405180910390f35b61013a6004803603810190610135919061090b565b610578565b005b600260009054906101000a900473ffffffffffffffffffffffffffffffffffffffff1673ffffffffffffffffffffffffffffffffffffffff163373ffffffffffffffffffffffffffffffffffffffff16146101c3576040517fbda53a3600000000000000000000000000000000000000000000000000000000815260040160405180910390fd5b600081116101fd576040517f3958c15b00000000000000000000000000000000000000000000000000000000815260040160405180910390fd5b8173ffffffffffffffffffffffffffffffffffffffff168373ffffffffffffffffffffffffffffffffffffffff16141580156102665750600073ffffffffffffffffffffffffffffffffffffffff168273ffffffffffffffffffffffffffffffffffffffff1614155b61029c576040517f091d2b2600000000000000000000000000000000000000000000000000000000815260040160405180910390fd5b6000612710600354836102af9190610967565b6102b991906109d8565b9050600081836102c99190610a09565b9050600160009054906101000a900473ffffffffffffffffffffffffffffffffffffffff1673ffffffffffffffffffffffffffffffffffffffff166323b872dd8686846040518463ffffffff1660e01b815260040161032a93929190610a3d565b6020604051808303816000875af1158015610349573d6000803e3d6000fd5b505050506040513d601f19601f8201168201806040525081019061036d9190610aac565b6103a3576040517fb991708200000000000000000000000000000000000000000000000000000000815260040160405180910390fd5b600160009054906101000a900473ffffffffffffffffffffffffffffffffffffffff1673ffffffffffffffffffffffffffffffffffffffff166323b872dd8632856040518463ffffffff1660e01b815260040161040293929190610a3d565b6020604051808303816000875af1158015610421573d6000803e3d6000fd5b505050506040513d601f19601f820116820180604052508101906104459190610aac565b61047b576040517ffd80fc5000000000000000000000000000000000000000000000000000000000815260040160405180910390fd5b8373ffffffffffffffffffffffffffffffffffffffff168573ffffffffffffffffffffffffffffffffffffffff167fbfba8807ba3faa0360b2723bf32bd1458033315d54b57d95c4d1056ccceaedfa85426040516104da929190610ad9565b60405180910390a35050505050565b6104f16105fe565b6104fb6000610685565b565b600260009054906101000a900473ffffffffffffffffffffffffffffffffffffffff1681565b60008060009054906101000a900473ffffffffffffffffffffffffffffffffffffffff16905090565b60035481565b600160009054906101000a900473ffffffffffffffffffffffffffffffffffffffff1681565b6105806105fe565b600073ffffffffffffffffffffffffffffffffffffffff168173ffffffffffffffffffffffffffffffffffffffff16036105f25760006040517f1e4fbdf70000000000000000000000000000000000000000000000000000000081526004016105e9919061084c565b60405180910390fd5b6105fb81610685565b50565b610606610749565b73ffffffffffffffffffffffffffffffffffffffff16610624610523565b73ffffffffffffffffffffffffffffffffffffffff161461068357610647610749565b6040517f118cdaa700000000000000000000000000000000000000000000000000000000815260040161067a919061084c565b60405180910390fd5b565b60008060009054906101000a900473ffffffffffffffffffffffffffffffffffffffff169050816000806101000a81548173ffffffffffffffffffffffffffffffffffffffff021916908373ffffffffffffffffffffffffffffffffffffffff1602179055508173ffffffffffffffffffffffffffffffffffffffff168173ffffffffffffffffffffffffffffffffffffffff167f8be0079c531659141344cd1fd0a4f28419497f9722a3daafe3b4186f6b6457e060405160405180910390a35050565b600033905090565b600080fd5b600073ffffffffffffffffffffffffffffffffffffffff82169050919050565b600061078182610756565b9050919050565b61079181610776565b811461079c57600080fd5b50565b6000813590506107ae81610788565b92915050565b6000819050919050565b6107c7816107b4565b81146107d257600080fd5b50565b6000813590506107e4816107be565b92915050565b60008060006060848603121561080357610802610751565b5b60006108118682870161079f565b93505060206108228682870161079f565b9250506040610833868287016107d5565b9150509250925092565b61084681610776565b82525050565b6000602082019050610861600083018461083d565b92915050565b610870816107b4565b82525050565b600060208201905061088b6000830184610867565b92915050565b6000819050919050565b60006108b66108b16108ac84610756565b610891565b610756565b9050919050565b60006108c88261089b565b9050919050565b60006108da826108bd565b9050919050565b6108ea816108cf565b82525050565b600060208201905061090560008301846108e1565b92915050565b60006020828403121561092157610920610751565b5b600061092f8482850161079f565b91505092915050565b7f4e487b7100000000000000000000000000000000000000000000000000000000600052601160045260246000fd5b6000610972826107b4565b915061097d836107b4565b925082820261098b816107b4565b915082820484148315176109a2576109a1610938565b5b5092915050565b7f4e487b7100000000000000000000000000000000000000000000000000000000600052601260045260246000fd5b60006109e3826107b4565b91506109ee836107b4565b9250826109fe576109fd6109a9565b5b828204905092915050565b6000610a14826107b4565b9150610a1f836107b4565b9250828203905081811115610a3757610a36610938565b5b92915050565b6000606082019050610a52600083018661083d565b610a5f602083018561083d565b610a6c6040830184610867565b949350505050565b60008115159050919050565b610a8981610a74565b8114610a9457600080fd5b50565b600081519050610aa681610a80565b92915050565b600060208284031215610ac257610ac1610751565b5b6000610ad084828501610a97565b91505092915050565b6000604082019050610aee6000830185610867565b610afb6020830184610867565b939250505056fea2646970667358221220a9f512f91b54e734a8e852438eb7d7a00f1c11f8f421053dffe67ccae0ed21fd64736f6c634300081c0033",
  "linkReferences": {},
  "deployedLinkReferences": {}
}