{
  "_format": "hh-sol-artifact-1",
  "contractName": "MetaTxForwarder",
  "sourceName": "contracts/MetaTxForwarder.sol",
  "abi": [
    {
      "inputs": [],
      "name": "MetaTxForwarder__InvalidSignature",
      "type": "error"
    },
    {
      "inputs": [],
      "name": "MetaTxForwarder__InvalidSignatureLength",
      "type": "error"
    },
    {
      "anonymous": false,
      "inputs": [
        {
          "indexed": true,
          "internalType": "address",
          "name": "sender",
          "type": "address"
        },
        {
          "indexed": true,
          "internalType": "address",
          "name": "relayer",
          "type": "address"
        }
      ],
      "name": "MetaTransactionExecuted",
      "type": "event"
    },
    {
      "inputs": [
        {
          "internalType": "address",
          "name": "_sender",
          "type": "address"
        },
        {
          "internalType": "address",
          "name": "_receiver",
          "type": "address"
        },
        {
          "internalType": "uint256",
          "name": "_amount",
          "type": "uint256"
        },
        {
          "internalType": "address",
          "name": "_targetContract",
          "type": "address"
        },
        {
          "internalType": "bytes",
          "name": "signature",
          "type": "bytes"
        }
      ],
      "name": "executeMetaTransaction",
      "outputs": [],
      "stateMutability": "nonpayable",
      "type": "function"
    },
    {
      "inputs": [
        {
          "internalType": "bytes32",
          "name": "_messageHash",
          "type": "bytes32"
        }
      ],
      "name": "getEthSignedMessageHash",
      "outputs": [
        {
          "internalType": "bytes32",
          "name": "",
          "type": "bytes32"
        }
      ],
      "stateMutability": "pure",
      "type": "function"
    },
    {
      "inputs": [
        {
          "internalType": "address",
          "name": "_sender",
          "type": "address"
        },
        {
          "internalType": "address",
          "name": "_receiver",
          "type": "address"
        },
        {
          "internalType": "uint256",
          "name": "_amount",
          "type": "uint256"
        },
        {
          "internalType": "address",
          "name": "_targetContract",
          "type": "address"
        },
        {
          "internalType": "uint256",
          "name": "_nonce",
          "type": "uint256"
        }
      ],
      "name": "getMessageHash",
      "outputs": [
        {
          "internalType": "bytes32",
          "name": "",
          "type": "bytes32"
        }
      ],
      "stateMutability": "pure",
      "type": "function"
    },
    {
      "inputs": [
        {
          "internalType": "address",
          "name": "",
          "type": "address"
        }
      ],
      "name": "nonces",
      "outputs": [
        {
          "internalType": "uint256",
          "name": "",
          "type": "uint256"
        }
      ],
      "stateMutability": "view",
      "type": "function"
    },
    {
      "inputs": [
        {
          "internalType": "bytes32",
          "name": "ethSignedMessageHash",
          "type": "bytes32"
        },
        {
          "internalType": "bytes",
          "name": "signature",
          "type": "bytes"
        }
      ],
      "name": "recoverSigner",
      "outputs": [
        {
          "internalType": "address",
          "name": "",
          "type": "address"
        }
      ],
      "stateMutability": "pure",
      "type": "function"
    },
    {
      "inputs": [
        {
          "internalType": "bytes",
          "name": "sig",
          "type": "bytes"
        }
      ],
      "name": "splitSignature",
      "outputs": [
        {
          "internalType": "bytes32",
          "name": "r",
          "type": "bytes32"
        },
        {
          "internalType": "bytes32",
          "name": "s",
          "type": "bytes32"
        },
        {
          "internalType": "uint8",
          "name": "v",
          "type": "uint8"
        }
      ],
      "stateMutability": "pure",
      "type": "function"
    },
    {
      "inputs": [
        {
          "internalType": "address",
          "name": "_sender",
          "type": "address"
        },
        {
          "internalType": "address",
          "name": "_receiver",
          "type": "address"
        },
        {
          "internalType": "uint256",
          "name": "_amount",
          "type": "uint256"
        },
        {
          "internalType": "address",
          "name": "_targetContract",
          "type": "address"
        },
        {
          "internalType": "uint256",
          "name": "_nonce",
          "type": "uint256"
        },
        {
          "internalType": "bytes",
          "name": "signature",
          "type": "bytes"
        }
      ],
      "name": "verify",
      "outputs": [
        {
          "internalType": "bool",
          "name": "",
          "type": "bool"
        }
      ],
      "stateMutability": "pure",
      "type": "function"
    }
  ],
  "bytecode": "0x6080604052348015600f57600080fd5b50610d9d8061001f6000396000f3fe608060405234801561001057600080fd5b506004361061007d5760003560e01c806397aba7f91161005b57806397aba7f9146100fe578063a7bb58031461012e578063bfab90e814610160578063fa540801146101905761007d565b80630d19431f14610082578063122ff734146100b25780637ecebe00146100ce575b600080fd5b61009c60048036038101906100979190610717565b6101c0565b6040516100a991906107db565b60405180910390f35b6100cc60048036038101906100c791906107f6565b61022b565b005b6100e860048036038101906100e3919061088d565b6103d7565b6040516100f591906108c9565b60405180910390f35b6101186004803603810190610113919061091a565b6103ef565b6040516101259190610985565b60405180910390f35b610148600480360381019061014391906109a0565b61045e565b60405161015793929190610a14565b60405180910390f35b61017a60048036038101906101759190610a4b565b6104bd565b6040516101879190610ac6565b60405180910390f35b6101aa60048036038101906101a59190610ae1565b6104f9565b6040516101b79190610ac6565b60405180910390f35b6000806101d088888888886104bd565b905060006101dd826104f9565b905060006101eb82866103ef565b90508973ffffffffffffffffffffffffffffffffffffffff168173ffffffffffffffffffffffffffffffffffffffff161493505050509695505050505050565b60008060008773ffffffffffffffffffffffffffffffffffffffff1673ffffffffffffffffffffffffffffffffffffffff16815260200190815260200160002054905061027c8686868685876101c0565b6102b2576040517f67bf8cfb00000000000000000000000000000000000000000000000000000000815260040160405180910390fd5b6000808773ffffffffffffffffffffffffffffffffffffffff1673ffffffffffffffffffffffffffffffffffffffff168152602001908152602001600020600081548092919061030190610b3d565b91905055508273ffffffffffffffffffffffffffffffffffffffff16634b0d491b8787876040518463ffffffff1660e01b815260040161034393929190610b85565b600060405180830381600087803b15801561035d57600080fd5b505af1158015610371573d6000803e3d6000fd5b505050503373ffffffffffffffffffffffffffffffffffffffff168673ffffffffffffffffffffffffffffffffffffffff167f64bb5d5194f81f59ea4cf1adcd244dc25df17df97d5970ffdc1855409538b99e60405160405180910390a3505050505050565b60006020528060005260406000206000915090505481565b6000806000806103fe8561045e565b925092509250600186828585604051600081526020016040526040516104279493929190610bbc565b6020604051602081039080840390855afa158015610449573d6000803e3d6000fd5b50505060206040510351935050505092915050565b6000806000604184511461049e576040517f60050d0e00000000000000000000000000000000000000000000000000000000815260040160405180910390fd5b6020840151925060408401519150606084015160001a90509193909250565b600085858585856040516020016104d8959493929190610c6a565b60405160208183030381529060405280519060200120905095945050505050565b60008160405160200161050c9190610d41565b604051602081830303815290604052805190602001209050919050565b6000604051905090565b600080fd5b600080fd5b600073ffffffffffffffffffffffffffffffffffffffff82169050919050565b60006105688261053d565b9050919050565b6105788161055d565b811461058357600080fd5b50565b6000813590506105958161056f565b92915050565b6000819050919050565b6105ae8161059b565b81146105b957600080fd5b50565b6000813590506105cb816105a5565b92915050565b600080fd5b600080fd5b6000601f19601f8301169050919050565b7f4e487b7100000000000000000000000000000000000000000000000000000000600052604160045260246000fd5b610624826105db565b810181811067ffffffffffffffff82111715610643576106426105ec565b5b80604052505050565b6000610656610529565b9050610662828261061b565b919050565b600067ffffffffffffffff821115610682576106816105ec565b5b61068b826105db565b9050602081019050919050565b82818337600083830152505050565b60006106ba6106b584610667565b61064c565b9050828152602081018484840111156106d6576106d56105d6565b5b6106e1848285610698565b509392505050565b600082601f8301126106fe576106fd6105d1565b5b813561070e8482602086016106a7565b91505092915050565b60008060008060008060c0878903121561073457610733610533565b5b600061074289828a01610586565b965050602061075389828a01610586565b955050604061076489828a016105bc565b945050606061077589828a01610586565b935050608061078689828a016105bc565b92505060a087013567ffffffffffffffff8111156107a7576107a6610538565b5b6107b389828a016106e9565b9150509295509295509295565b60008115159050919050565b6107d5816107c0565b82525050565b60006020820190506107f060008301846107cc565b92915050565b600080600080600060a0868803121561081257610811610533565b5b600061082088828901610586565b955050602061083188828901610586565b9450506040610842888289016105bc565b935050606061085388828901610586565b925050608086013567ffffffffffffffff81111561087457610873610538565b5b610880888289016106e9565b9150509295509295909350565b6000602082840312156108a3576108a2610533565b5b60006108b184828501610586565b91505092915050565b6108c38161059b565b82525050565b60006020820190506108de60008301846108ba565b92915050565b6000819050919050565b6108f7816108e4565b811461090257600080fd5b50565b600081359050610914816108ee565b92915050565b6000806040838503121561093157610930610533565b5b600061093f85828601610905565b925050602083013567ffffffffffffffff8111156109605761095f610538565b5b61096c858286016106e9565b9150509250929050565b61097f8161055d565b82525050565b600060208201905061099a6000830184610976565b92915050565b6000602082840312156109b6576109b5610533565b5b600082013567ffffffffffffffff8111156109d4576109d3610538565b5b6109e0848285016106e9565b91505092915050565b6109f2816108e4565b82525050565b600060ff82169050919050565b610a0e816109f8565b82525050565b6000606082019050610a2960008301866109e9565b610a3660208301856109e9565b610a436040830184610a05565b949350505050565b600080600080600060a08688031215610a6757610a66610533565b5b6000610a7588828901610586565b9550506020610a8688828901610586565b9450506040610a97888289016105bc565b9350506060610aa888828901610586565b9250506080610ab9888289016105bc565b9150509295509295909350565b6000602082019050610adb60008301846109e9565b92915050565b600060208284031215610af757610af6610533565b5b6000610b0584828501610905565b91505092915050565b7f4e487b7100000000000000000000000000000000000000000000000000000000600052601160045260246000fd5b6000610b488261059b565b91507fffffffffffffffffffffffffffffffffffffffffffffffffffffffffffffffff8203610b7a57610b79610b0e565b5b600182019050919050565b6000606082019050610b9a6000830186610976565b610ba76020830185610976565b610bb460408301846108ba565b949350505050565b6000608082019050610bd160008301876109e9565b610bde6020830186610a05565b610beb60408301856109e9565b610bf860608301846109e9565b95945050505050565b60008160601b9050919050565b6000610c1982610c01565b9050919050565b6000610c2b82610c0e565b9050919050565b610c43610c3e8261055d565b610c20565b82525050565b6000819050919050565b610c64610c5f8261059b565b610c49565b82525050565b6000610c768288610c32565b601482019150610c868287610c32565b601482019150610c968286610c53565b602082019150610ca68285610c32565b601482019150610cb68284610c53565b6020820191508190509695505050505050565b600081905092915050565b7f19457468657265756d205369676e6564204d6573736167653a0a333200000000600082015250565b6000610d0a601c83610cc9565b9150610d1582610cd4565b601c82019050919050565b6000819050919050565b610d3b610d36826108e4565b610d20565b82525050565b6000610d4c82610cfd565b9150610d588284610d2a565b6020820191508190509291505056fea2646970667358221220b4ffebe26719dae940556ccc324b93f63a1678ab6c53bfe8616b095cefcc30fd64736f6c634300081c0033",
  "linkReferences": {},
  "deployedLinkReferences": {}
}